:10000000F80B0020F9080000ED090000CBAF00005C
:10001000F5AF00001FB0000073B0000049B0000051
:10002000000000000000000000000000F167000078
:10003000ED09000000000000ED090000ED090000DE
:10004000ED090000ED09000000000000EF7F000056
:1000500000000000ED0900000000000000000000AA
:10006000ED090000ED090000ED090000ED090000B8
:10007000ED090000ED090000ED090000ED090000A8
:10008000ED090000ED090000000000000000000084
:10009000ED090000ED090000000000000000000074
:1000A000ED090000ED090000ED090000ED09000078
:1000B000ED090000ED090000ED090000ED09000068
:1000C000ED090000ED090000ED090000ED09000058
:1000D000ED09000000000000ED0900000000000034
:1000E000ED09000000000000ED090000ED0900002E
:1000F00000000000ED09000000000000ED09000014
:10010000000000000000000000000000ED090000F9
:10011000ED09000000000000ED090000ED090000FD
:1001200000000000ED0900000000000000000000D9
:1001300000000000000000000000000000000000BF
:1001400000000000000000000000000000000000AF
:04015000ED090000B5
:1001540000015F5F02000000FE0B0000C5680000A4
:100164008006000000000000000000000000000005
:1001740000000000000000000100FFC3000000C4F4
:10018400802300200000000001015F5F03010000E4
:100194001F010000410200000000000000000000F8
:1001A4000100000001000000000000000000000049
:1001B400000000000000000000000000000000003B
:1001C4007000000014B5000080000000000F000063
:1001D400010000003D03000001015F5F0401000015
:1001E4001F010000ED0700000000000000000000F7
:1001F40000000000010000000000000000000000FA
:1002040000000000000000000000000000000000EA
:1002140020B50000400000000507000001000000B8
:04022400B10700001E
:1002400010B500F075F900B110BD00F0A1F9044639
:10025000074821460BF00BF900F0A8F90028F3D16C
:10026000214604480BF003F9BDE8104008F086BFB2
:10027000FC07000024080000002310B582B01146DE
:10028000CDE90033D0E90023402B4AD1138D8446B9
:100290004FEA132EBEF1030F3FD0BEF1010F10D075
:1002A000244C1068D4F80424AEF10203CDE9000216
:1002B000082B39D8DFE803F00E3113181D22272C44
:1002C000090000F061F902B010BD60466A4600F016
:1002D0007BF9F8E760466A4600F052F9F3E76046BA
:1002E0006A4600F039F9EEE760466A4600F02CF9FC
:1002F000E9E760466A4600F033F9E4E760466A469B
:1003000000F032F9DFE760466A4600F031F9DAE7DB
:1003100060466A4600F030F9D5E7604600F018F90B
:10032000D1E76FF08000CEE703480BF0A0F86FF044
:100330008500C8E7201C0020600800002DE9F04F70
:100340000468A3B0002C40F0E3800546202221463B
:1003500002A80AF04EFF202221460AA80AF049FF0F
:100360004022214612A80AF044FFEA6905F11C0B5D
:100370005B46042662B9032153F8042D4E1E32B9A0
:1003800036B1314653F8042D4E1E002AF8D00E46E1
:10039000EA6A042705F12C0362B9032153F8042DFE
:1003A0004F1E32B937B1394653F8042D4F1E002A7B
:1003B000F8D00F46002E00F0A68040230021686888
:1003C00012AA0AF089FF402840F09D8012AB012E4E
:1003D000CDE9023000F09A804FF00108534C0DF146
:1003E000080905F1100A01975AF8043FD4F80004EF
:1003F000D91C21F003011A1D04EB000701EB000CCE
:10040000C0F5806E60D871455ED8414668683A464E
:10041000C4F800C40AF060FF08F101084645C9F8B5
:100420000C0049F8087FDFD1019F002F73D0D4F86A
:1004300000040DF12808DC460BEB870A4146024612
:100440004FF00009AB4601905CF8040FC2F5806ED6
:10045000C31C10F1040F23F0030304EB020543D87F
:10046000734541D8D445C1E900504FF001091A4401
:1004700001F10801E8D1DBF808303146C4F8002466
:10048000C4F804340AAA3B4602A8FFF7F5FE5D460D
:10049000002681463146D8F80430686858F8082BA1
:1004A00001360AF038FFB742F4D10025D4F8002411
:1004B00029461E48C4F804540AF09BFEC4F80054B0
:1004C000484623B0BDE8F08F002102461748C4F823
:1004D00004140AF08EFE6FF08C0900234846C4F81D
:1004E000003423B0BDE8F08F0198B9F1000F02D0BD
:1004F0001046C4F80024002102460C48C4F8041435
:100500000AF077FEE7E76FF08309D9E7074C8CE73D
:100510006FF08509D4E7AB683146C4F804340AAA01
:100520003B4602A8FFF7A8FE8146BEE7201C00203C
:1005300008B54FF4B272002102480AF05AFE0020BA
:1005400008BD00BF282000206FF08500704700BF65
:100550006FF08500704700BF6FF08500704700BFE7
:100560006FF08500704700BF6FF08500704700BFD7
:100570006FF08500704700BF6FF08500704700BFC7
:100580006FF08500704700BFD1E9000108F0B8BDE9
:1005900010B5044C0F22204603490AF0E4FD204622
:1005A00010BD00BF902100208808000008B501217F
:1005B000034808F089FB034808F056FD002008BDF9
:1005C0008C2100206FB400006FF08500704700BFE1
:1005D00080B500AF04F05DFF0023184680BD80B5F4
:1005E00082B000AF7860FFF7F3FF03461846083784
:1005F000BD4680BD80B5AEB000AF78600023C7F8BF
:10060000B4300023C7F8B03007F1940300221A6019
:100610005A6007F18C0300221A605A600023FB64C1
:1006200007F150033C22002118460AF0E2FD0023A6
:10063000FB6007F110033C22002118460AF0D9FDA7
:100640000023BB600123C7F8A4300023C7F8A03003
:100650000423C7F8AC300423C7F8A83004E0D7F867
:10066000AC30013BC7F8AC30D7F8AC30002B0ED023
:10067000D7F8AC305A1E7B68043253F82230002B76
:10068000EDD004E0D7F8A830013BC7F8A830D7F880
:10069000A830002B08D0D7F8A8305A1E7B68083243
:1006A00053F82230002BEDD0D7F8AC30002B07D018
:1006B000D7F8AC30022B03D8D7F8A830012B01D9DA
:1006C000012371E07B68586807F1080204230021C8
:1006D0000AF002FE0346C7F8A030D7F8A030042B7A
:1006E00002D06FF080035FE0D7F8AC30012B2BD93C
:1006F0007B685B69C7F89C30D7F89C30402B02D9E7
:100700006FF0890350E07B6858687B685B6907F18C
:100710004C0201210AF0E0FD0346C7F8A030D7F8EB
:10072000A030D7F89C209A4202D06FF080033BE0C3
:1007300007F14C03C7F89430D7F89C30C7F89830CD
:1007400007F19403C7F8B430D7F8A830002B12D0C3
:100750007B681B6A402B02D96FF0800324E007F10D
:100760000C03C7F88C307B681B6AC7F8903007F120
:100770008C03C7F8B030BB68D7F8B020D7F8B410F6
:10078000184603F02DF8C7F8A400D7F8B030002BB6
:1007900008D07B685868D7F88C20D7F890300021B3
:1007A0000AF0B9FDD7F8A4301846B837BD4680BD69
:1007B00080B582B000AF78607B681B68B3F57D7F41
:1007C00004D040F2F532934205D009E07868FFF793
:1007D00006FF034606E07868FFF70CFF034601E0DA
:1007E0006FF0850318460837BD4680BD80B400AF62
:1007F00000231846BD4680BC704700005B4442475A
:100800005D5B43727970746F5D20496E6974201B63
:100810005B303B33326D25731B5B306D2E2E2E0DFE
:100820000A0000005B4442475D5B43727970746F5D
:100830005D20496E6974201B5B303B33326D25733C
:100840001B5B306D2E2E2E201B5B303B33326D63D5
:100850006F6D706C6574651B5B306D2E0D0A00004A
:100860005B4552525D5B43727970746F5D20556ECB
:10087000737570706F7274656420726571756573DD
:1008800074210D0A000000004D62656420544C5331
:1008900020332E362E34000000000000000000003F
:0808A000E87F000001000000E8
:1008A800698800004188000040BC0000C021002089
:1008B8004F00000040BC0000201C00200000000089
:1008C80040BC0000001C002000000000FC220020AA
:1008D800C2050000201C002068010000001C002048
:1008E8000800000080B500AF06F07CFE00BF80BDA8
:1008F80080B588B000AF72B600BF314B314A9A60FC
:10090800314B3B603B6883F3098800BF2F4B7B600A
:100918007B6883F30A8800BF2C4BBB60BB6883F3FA
:100928000B8800BF2A4BFB60F96823A3D3E9002397
:10093800C1E9002300BF00F029FA264BFB6119E04A
:100948000023BB610EE0FB691A68BB699B001A446F
:10095800FB695968BB699B000B4412681A60BB6944
:100968000133BB61FB699B68BA699A42EBD3FB69A7
:100978000C33FB61FB69184A9342E1D3174B7B6147
:1009880014E000233B6109E07B691A683B699B001E
:10099800134400221A603B6901333B617B695B6841
:1009A8003A699A42F0D37B6908337B617B690C4AC8
:1009B8009342E6D307F068FFA5EDF5FEA5EDF5FE39
:1009C80000ED00E000000000F80B0020000400200B
:1009D800F80B0020B0080000D4080000D40800007C
:1009E800EC080000EFF30880EFF309812DE9F00F20
:1009F8006B46724600F050FB08B0FFF773FFFEE746
:100A080000BF000080B483B000AF144B1B687B604C
:100A1800134B1B683B607B68072B19D13B68023B73
:100A2800032B13D801A252F823F000BF450A000097
:100A3800490A00004D0A0000510A0000012308E09D
:100A4800002306E0002304E0002302E0002300E086
:100A5800002318460C37BD4680BC70473001FF00A4
:100A68003401FF0080B483B000AF144B1B687B6077
:100A7800134B1B683B607B68072B19D13B68023B13
:100A8800032B13D801A252F823F000BFA50A0000D7
:100A9800A90A0000AD0A0000B10A0000012308E01D
:100AA800012306E0002304E0002302E0002300E025
:100AB800002318460C37BD4680BC70473001FF0044
:100AC8003401FF0080B483B000AF144B1B687B6017
:100AD800134B1B683B607B68072B19D13B68023BB3
:100AE800032B13D801A252F823F000BF050B000016
:100AF800090B00000D0B0000110B0000012308E09A
:100B0800002306E0002304E0002302E0002300E0C5
:100B1800002318460C37BD4680BC70473001FF00E3
:100B28003401FF0080B483B000AF144B1B687B60B6
:100B3800134B1B683B607B68072B19D13B68023B52
:100B4800032B13D801A252F823F000BF650B000055
:100B5800690B00006D0B0000710B0000012308E019
:100B6800012306E0012304E0012302E0012300E061
:100B7800002318460C37BD4680BC70473001FF0083
:100B88003401FF0080B483B000AF144B1B687B6056
:100B9800134B1B683B607B68072B19D13B68023BF2
:100BA800032B13D801A252F823F000BFC50B000095
:100BB800C90B0000CD0B0000D10B0000012308E099
:100BC800002306E0002304E0002302E0002300E005
:100BD800002318460C37BD4680BC70473001FF0023
:100BE8003401FF0080B483B000AF144B1B687B60F6
:100BF800134B1B683B607B68072B19D13B68023B92
:100C0800032B13D801A252F823F000BF250C0000D3
:100C1800290C00002D0C0000310C0000012308E015
:100C2800002306E0002304E0002302E0002300E0A4
:100C3800002318460C37BD4680BC70473001FF00C2
:100C48003401FF0080B483B000AF144B1B687B6095
:100C5800134B1B683B607B68072B19D13B68023B31
:100C6800032B13D801A252F823F000BF850C000013
:100C7800890C00008D0C0000910C0000012308E095
:100C8800002306E0002304E0002302E0002300E044
:100C9800002318460C37BD4680BC70473001FF0062
:100CA8003401FF0080B483B000AF144B1B687B6035
:100CB800134B1B683B607B68072B19D13B68023BD1
:100CC800032B13D801A252F823F000BFE50C000053
:100CD800E90C0000ED0C0000F10C0000012308E015
:100CE800012306E0012304E0012302E0012300E0E0
:100CF800002318460C37BD4680BC70473001FF0002
:100D08003401FF0080B483B000AF144B1B687B60D4
:100D1800134B1B683B607B68072B19D13B68023B70
:100D2800032B13D801A252F823F000BF450D000091
:100D3800490D00004D0D0000510D0000002308E092
:100D4800002306E0002304E0012302E0012300E081
:100D5800002318460C37BD4680BC70473001FF00A1
:100D68003401FF0080B400AF064B074A1B68C2F885
:100D78004435044B044ADB69C2F84C3500BFBD4614
:100D880080BC70470080FF000060005080B582B0D2
:100D980000AF714B1B68704A43F002031360FFF702
:100DA80051FF0346002B0CD06C4B1B68002B08D15D
:100DB8006A4B0D221A606A4B01221A60684B0022A6
:100DC8001A6000237B6000237B6011E04FF47F02F0
:100DD8004FF47F017B68603351F8333019467B68E4
:100DE8006033DB0013445B680B607B6801337B6016
:100DF8007B681F2B08D84FF47F027B68603352F85A
:100E08003330B3F1FF3FE1D1FFF7BCFE0346002BBF
:100E180005D0544B29221A60534B03221A60FFF75E
:100E2800F1FD0346002B07D0504B514A1A604FF092
:100E380050230122C3F85825FFF714FE0346002B60
:100E480002D04C4B00221A60FFF73CFE0346002BF1
:100E580011D04FF05023D3F8003403F00103002BD6
:100E680009D04FF050230022C3F814214FF050232B
:100E78000022C3F81821FFF755FE0346002B0DD0BA
:100E88004FF05023D3F8003403F00103002B05D0B2
:100E98004FF050236FF00102C3F80024FFF7A2FEC1
:100EA8000346002B02D02F4B65221A60FFF7FAFE8B
:100EB8000346002B21D0304B1B68002B1DDA4FF066
:100EC80050230322C3F818254FF0502301229A60BB
:100ED80000BF4FF05023D3F80431002BF9D04FF066
:100EE80050230022C3F804214FF050230122DA6076
:100EF8004FF050230122C3F81825FFF703FF0346DC
:100F0800002B1AD0174B7E221A601C4B7E221A60C7
:100F18001B4B7F221A601B4B00221A601A4B0022BF
:100F28001A601A4B00221A60194B00221A60194BDA
:100F380000221A60184B00221A60184BD3F88C3024
:100F4800164A43F44063C2F88C30FFF70BFF00BF2A
:100F58000837BD4680BD00BFD0ED00E0204A0050F4
:100F68001C4900500C4700503C4700503095035036
:100F78004400EFBE4C250350202403503C49005048
:100F880018210050049E0350089E03501011105061
:100F9800242100502C210050A012205000ED00E028
:100FA80080B584B000AF78600023FB730E212A4817
:100FB80002F03BFE7B681B68033B042B2BD801A285
:100FC80052F823F0E10F0000EB0F0000F90F0000CA
:100FD80007100000151000000C21204802F025FE23
:100FE80030E012211E4802F020FE0123FB7329E0A5
:100FF8000B211C4802F019FE0123FB7322E00D218E
:10100800194802F012FE0123FB731BE00E2117485A
:1010180002F00BFE16E07B681B680F2B07D87B6875
:101028001B681A461421124806F0E2FA07E07B68AA
:101038001B68103B1A4625210E4806F0D9FA0123F1
:10104800FB7300BFFB7B7968184602F0DAFD00BF2E
:101058001037BD4680BD00BF648100007481000068
:101068008081000094810000A0810000B081000010
:10107800C0810000D481000080B582B000AF7860E4
:101088007C22044978680AF06AF800BF0837BD4630
:1010980080BD00BF1C2A002080B586B000AFF86074
:1010A800B9607A603B60394B7B61394B5B68C3F34D
:1010B80008027B691A60EFF303833B613A697B6935
:1010C8005A657B697A685A607B69FA689A607B69B5
:1010D800BA68DA607B6958687B6999687B69DB68FC
:1010E8001A4602F066FD02467B691A617B6903F1C4
:1010F80014007B691B69202219460AF030F83B6806
:10110800002B06D07B6934332022396818460AF050
:1011180026F81F4B9A6A7B699A651D4BDA6A7B69C8
:10112800DA651B4B9A6B7B691A667B699B6D03F4C6
:1011380000427B695A66164B5A6B7B699A667B69D3
:101148009B6D03F080027B69DA66114A7B699B6DAF
:1011580093620F4A7B69DB6DD3620E4B5A697B69D8
:101168001A670C4B9A697B695A677B691B6F03F096
:1011780040027B699A67074A7B691B6F53617869EC
:10118800FFF70EFF00BF1837BD4680BD1C2A0020A0
:1011980000ED00E0D0ED00E080B584B000AF7860ED
:1011A800396000BF134BDB6A98470346DBB203F094
:1011B8000103DBB2002BF5D10E4B5B693968786807
:1011C8009847F860FB68002B01D000230EE000BFB1
:1011D800084BDB6A98470346DBB203F00103DBB236
:1011E800002BF5D1034B1B6A984703461846103766
:1011F800BD4680BD2882000080B582B000AF284B74
:101208009B680020984778607B68002B0DD00821E8
:10121800244802F00AFD0B21234802F006FD602253
:101228000221224806F0E4F9FEE71D4B1B69022063
:10123800984778607B68002B0DD00821194802F088
:10124800F4FC0B21184802F0F0FC63220221174835
:1012580006F0CEF9FEE7124B9B6A4FF4E13101200C
:10126800984778607B68002B0DD008210D4802F064
:10127800DCFC0B210C4802F0D8FC672202210B4849
:1012880006F0B6F9FEE7064B9B6A01211520984740
:10129800074B01221A6000BF0837BD4680BD00BF5A
:1012A80028820000FC8100000882000004820000FF
:1012B800982A002080B487B000AFF860B9607A60DF
:1012C80000237B6135E07B699B00BA6813441B6887
:1012D800C3F308033B613B6940F2FF12934202D11A
:1012E8004FF0FF333B617B699B00BA6813441B686E
:1012F8005B0C032B1AD801A252F823F01513000037
:101308001D130000251300002D130000FB683A6927
:101318001A600BE0FB683A695A6007E0FB683A69B3
:101328009A6003E0FB683A69DA6000BF7B690133C1
:101338007B617A697B689A42C5D300BF00BF1C37BE
:10134800BD4680BC704700BF80B483B000AF074B78
:101358001B687B600023BA8862F30F03FA8862F384
:101368001F4318460C37BD4680BC704714820000E6
:1013780080B592B000AF7860396007F10C0338226D
:101388000021184609F031FF4FF0FF33FB604FF0A2
:10139800FF333B614FF0FF337B614FF0FF33BB619D
:1013A8004FF0EB737B63072387F841303B689968FC
:1013B8003B68DA6807F10C031846FFF77BFF3B68C8
:1013C80007F10C010022184600F0D2FC78647B6C0F
:1013D800104A934202D06FF0010316E03B680022E6
:1013E8001A613B6800225A613B68183307F13802DA
:1013F80092E803001860043319807A6B3B681A621C
:101408003B68012283F82420002318464837BD464C
:1014180080BD00BF0000AD0B80B598B000AFF8608C
:10142800B9607A607B6893F8243083F00103DBB2FB
:10143800002B02D04FF0FF3349E0F86802F003FCBC
:10144800034683F00103DBB2002B27D00023FB65A2
:101458001FE0BA68FB6DD31A402B28BF40237B6579
:10146800FA68FB6DD11807F110037A6D184609F078
:1014780076FE07F110037A68796D1846FFF7CCFFFE
:1014880038653B6D002B01D03B6D20E0FB6D403390
:10149800FB65FA6DBB689A42DBD317E078680023D6
:1014A800BA68F96800F0DAFEB865BB6D0A4A93427B
:1014B80002D16FF001030AE0BB6D084A934202D0E3
:1014C8004FF0FF3303E07B68BA681A6100231846BF
:1014D8006037BD4680BD00BF0B00AD0B0000AD0BF3
:1014E80080B586B000AFF860B9607A607B6893F821
:1014F800243083F00103DBB2002B02D04FF0FF331E
:1015080018E07B68BA68F968184601F0CFFA786184
:101518007B690A4A934202D16FF001030AE07B69B2
:10152800074A934202D04FF0FF3303E07B68BA6862
:101538005A61002318461837BD4680BD0B00AD0B15
:101548000000AD0B80B588B000AFF860B9607A6074
:10155800FB68DBB2012B02D06FF0030367E17B6805
:101568001B6AFB617A6807F11403183292E80300DA
:10157800186004331980BB68964A934200F0D680FD
:10158800BB68944A934200F2D580BB68B3F5612FDB
:1015980000F0C880BB68B3F5612F00F2CB80BB6850
:1015A800B3F5E12F00F0BA80BB68B3F5E12F00F284
:1015B800C180BB68884A934200F0AC80BB68864A09
:1015C800934200F2B780BB68B3F5613F00F09E809C
:1015D800BB68B3F5613F00F2AD80BB68B3F5E13F8E
:1015E80000F09080BB68B3F5E13F00F2A380BB68D0
:1015F800B3F5963F00F08380BB68B3F5963F00F2E1
:101608009980BB68B3F5614F75D0BB68B3F5614F7E
:1016180000F29080BB684DF6C022934267D0BB6849
:101628004DF6C022934200F28580BB68B3F5164F91
:1016380059D0BB68B3F5164F7CD8BB6847F6122261
:1016480093424CD0BB6847F61222934272D8BB68CB
:10165800B3F5E14F40D0BB68B3F5E14F6AD8BB683A
:10166800B3F5964F35D0BB68B3F5964F62D8BB68D3
:10167800B3F5615F2AD0BB68B3F5615F5AD8BB6820
:10168800B3F5165F1FD0BB68B3F5165F52D8BB68B9
:10169800B3F5965F14D0BB68B3F5965F4AD8BB68BC
:1016A800B3F5966F04D0BB68B3F5166F04D041E06C
:1016B8004FF49E23FB6140E04FF41D23FB613CE0A7
:1016C800464BFB6139E0464BFB6136E0454BFB611D
:1016D80033E0454BFB6130E0444BFB612DE04FF4B8
:1016E8000003FB6129E04FF41D03FB6125E04FF483
:1016F8006503FB6121E04FF46B03FB611DE03C4B8C
:10170800FB611AE04FF0EB73FB6116E04FF06C736E
:10171800FB6112E04FF08063FB610EE04FF0E8637D
:10172800FB610AE04FF07063FB6106E04FF0805305
:10173800FB6102E06FF0070379E0FB6803F4E06304
:10174800002B02D06FF0080371E0FB6803F44043FC
:10175800002B03D0B3F5804F03D005E00023BB7501
:1017680005E01023BB7502E06FF00A035FE0FB6839
:1017780003F44053B3F5005F10D0B3F5005F13D8FE
:10178800002B03D0B3F5805F03D00DE000237B75F9
:101798000DE00E237B7500233B8308E00E237B7549
:1017A8004FF480733B8302E06FF009033FE0FB686E
:1017B80003F44033002B03D0B3F5403F03D005E0DA
:1017C80000233B7516E001233B7513E06FF00B0314
:1017D8002DE000BF40420F0090D0030000B013007E
:1017E8000050270000F03A0000A04E0000C075002D
:1017F80000903A017B68FA691A627B68183307F12E
:10180800140292E803001860043319807B681A6890
:101818007B681B6A1946104602F041FA7B681A6811
:101828007B6818331946104602F01FFA0023184641
:101838002037BD4680BD00BF80B582B000AF78605C
:1018480004497868FFF794FD034618460837BD46F3
:1018580080BD00BFC421002080B500AF024802F05F
:1018680035FA0346184680BDC421002080B582B0F1
:1018780000AF0346FB71FB790449184602F037FABA
:10188800034618460837BD4680BD00BFC421002066
:1018980080B582B000AF78603960054A39687868E9
:1018A800FFF7BAFD034618460837BD4680BD00BF9E
:1018B800C421002080B582B000AF78603960054A45
:1018C80039687868FFF70CFE034618460837BD46A6
:1018D80080BD00BFC421002080B500AF024802F0DF
:1018E80025FA0346184680BDC421002080B500AF04
:1018F800024802F026FA0346184680BDC42100209B
:1019080080B582B000AF78603960054A3968786878
:10191800FFF718FE034618460837BD4680BD00BFCE
:10192800C421002080B483B000AF0346FB7197F94F
:101938000730002B0BDBFB7903F01F02064997F9F0
:1019480007305B09012000FA02F241F8232000BFAA
:101958000C37BD4680BC704700E100E080B483B01E
:1019680000AF0346FB7197F90730002B12DBFB79B8
:1019780003F01F020A4997F907305B09012000FAB2
:1019880002F2203341F82320BFF34F8F00BFBFF38B
:101998006F8F00BF00BF0C37BD4680BC704700BFCB
:1019A80000E100E080B483B000AF03463960FB710A
:1019B80097F90730002B0ADB3B68DAB20C4997F934
:1019C80007305201D2B20B4483F800230AE03B6887
:1019D800DAB20849FB7903F00F03043B5201D2B293
:1019E8000B441A7600BF0C37BD4680BC704700BF59
:1019F80000E100E000ED00E080B584B000AF786061
:101A08007B68002B11D00B4B43F00103FB600A4BA2
:101A18001B680A4AA2FB03239A0C7B6802FB03F3A8
:101A2800BB60FB68B868984700E000BF1037BD4648
:101A380080BD00BF90820000C021002083DE1B43D0
:101A480080B584B000AF78607B681B68184602F0E8
:101A58007EFE034683F00103DBB2002B0ED0082183
:101A6800194802F0E2F81921184802F0DEF840F2AD
:101A7800CA320221164805F0BBFDFEE70023FB60D1
:101A8800786802F092FE0346002B02D0012B03D0A7
:101A980005E0104BFB6011E00F4BFB600EE00821E6
:101AA800094802F0C2F81921084802F0BEF840F2CD
:101AB800D3320221064805F09BFDFEE7FB68184675
:101AC8001037BD4680BD00BF608200006C820000F8
:101AD80068820000002584500028845080B586B0B4
:101AE80000AF7860084611461A460346FB700B465D
:101AF800BB7013467B703B1D1846FFF7A1FF78614A
:101B08007A687B69803253F822303B61114BFB6065
:101B1800FB68DB433A6913403B61FA78BB785B00AA
:101B28001A437B789B001A4397F820301B021A430C
:101B380097F824301B0413433A6913433B617A68CE
:101B48007B698032396943F8221000BF1837BD46D7
:101B580080BD00BF0F0F030080B58AB000AF78606A
:101B680039607B681B791A4613469B0013441B0196
:101B7800534A13447B623B6893F8333083F0010384
:101B8800DBB2002B20D07B6ADB6C43F000731A4673
:101B98007B6ADA643B681B68B3F1FF3F09D03B6896
:101BA8001B68184602F03FFE3B681B68184602F0A7
:101BB8000FFE3B685B68B3F1FF3F05D03B685B688D
:101BC8000021184602F011FE3B6893F82C30012BD7
:101BD80028D13B6893F8333083F00103DBB2002B44
:101BE80020D07B6ADB6C43F000631A467B6ADA64B8
:101BF8003B68DB68B3F1FF3F05D03B68DB68002139
:101C0800184602F0F2FD3B689B68B3F1FF3F09D02C
:101C18003B689B68184602F006FE3B689B681846BE
:101C280002F0D6FD3B6893F8323083F00103DBB253
:101C3800002B06D07B6ADB6C43F080731A467B6A04
:101C4800DA6407F1080300221A605A609A60DA60C1
:101C58001A615A619A613B681B68BB603B685B68A4
:101C6800FB603B689B683B613B68DB687B613B686A
:101C780093F8323087F822303A6807F11C032C3287
:101C880092E803001860043319803B689B6ABB61C3
:101C98007B681B6807F108021146184602F0C2FA71
:101CA800786802F0CDFD7B6818683B6893F83520AA
:101CB8000023044902F0EFFA00BF2837BD4680BD73
:101CC8009C2A00201003420080B588B000AF7860DD
:101CD8007B681B791A4613469B0013441B01234A51
:101CE8001344FB617B681B6807F10C021146184618
:101CF80002F04FFBFB69DB6C03F08073002B04D010
:101D08007B681B68184602F069FBFB69DB6C03F013
:101D18000073002B25D0FB68B3F1FF3F03D0FB68AD
:101D2800184602F073FD3B69B3F1FF3F03D03B69EE
:101D3800184602F06BFDFB69DB6C03F00063002BB7
:101D48000FD0BB69B3F1FF3F03D0BB69184602F05F
:101D58005DFD7B69B3F1FF3F03D07B69184602F054
:101D680055FD00BF2037BD4680BD00BF9C2A00201E
:101D780080B58AB000AFF860B9607A60BB68002BA4
:101D88000ED108214E4801F050FF10214D4801F0B6
:101D98004CFF4FF4DF7202214B4805F029FCFEE7A7
:101DA800FB681B793B623A6A13469B0013441B018C
:101DB800464A13447B627B6A93F84830002B03D071
:101DC800434B7B617B6976E050220021786A09F0F9
:101DD8000CFABB681A697B6A1A60BB685A697B6A25
:101DE8009A63BB689B69002B03D17B6A0022DA6384
:101DF80004E0BB689B695A1E7B6ADA63BB681B6A8E
:101E0800042B06D9BB68DA697B6A9A617B6A00226F
:101E1800DA617B68002B04D0BB6893F83430002B60
:101E280001D0002301E04FF48073FB61BB6893F895
:101E38003430002B06D07B6ADB6C43F001031A4672
:101E48007B6ADA647B6A7A685A607B6A012283F863
:101E58004820FB681B68184602F082FD034683F0A1
:101E68000103DBB2002B01D01A4B24E0B968F868F3
:101E7800FFF772FEFB681A68BB6893F8343019469E
:101E8800104602F0B9FD034683F00103DBB2002BD4
:101E980001D0104B0FE07B68002B01D00E4A00E008
:101EA8000022FB691343BB61FB681B68B9691846CC
:101EB80002F0FCFA094B18462837BD4680BD00BF22
:101EC8006082000098820000688200009C2A00203E
:101ED8000C00AD0B0100AD0B10020A000000AD0BA9
:101EE80080B586B000AF78607B681B791A461346C8
:101EF8009B0013441B011E4A13447B617B681B68CB
:101F08003B617B6993F84830002B0ED108211948B2
:101F180001F08BFE1221184801F087FE40F255228D
:101F28000221164805F064FBFEE71549386902F0FE
:101F3800DFFA386902F01CFA01220121786800F002
:101F48005FFDF8600121786800F06CFAF860786845
:101F5800FFF7BAFE7B690022DA647B69002283F806
:101F680048207B6900225A6000BF1837BD4680BDF3
:101F78009C2A002060820000A8820000688200007D
:101F880010034A0080B588B000AFF860B9607A6085
:101F9800FB70FB781946F86802F0BCFC0346FB7737
:101FA800F86802F02DFBB861F86802F018FB786158
:101FB800FB7F002B04D17A69BB689A4200D1E8E71D
:101FC8007A69BB689A4205D17A68BB699A4201D995
:101FD8000B4B00E00B4B3B613B690A4A934209D12A
:101FE800FB7883F00103DBB2002B03D00C21F868E7
:101FF80002F0D0FA3B6918462037BD4680BD00BFC5
:102008000800AD0B0000AD0B80B58AB000AFF860DA
:10201800B9601346FB71FB681B791A4613469B008F
:1020280013441B014B4A1344BB61FB681B687B616B
:10203800BB6993F84830012B0ED00821464801F0BF
:10204800F4FD0921454801F0F0FD40F2ED2202219E
:10205800434805F0CDFAFEE7424B3B62BB699B6BF8
:10206800002B0FD1B968786901F0C1FE034683F0EF
:102078000103DBB2002B01D03B4B66E0002387F85D
:10208800273002E0012387F8273000F045FEBB69BE
:10209800DB6C03F00103002B14BF01230023DBB228
:1020A8001946786902F036FC0346FB74FB7C002B6A
:1020B80027D0BB695B6C002B06DA786902F0A0FABE
:1020C80003461A46BB695A6497F82730002B0ED08E
:1020D800BB699A6BBB69DB6B1344BA6812781A70D8
:1020E800BB699A6BBB69DB6B1344FB6101E0BB689E
:1020F800FB61FB790122F969786902F0C3FC1B4B8B
:102108003B6200F019FE3B6A184A93421CD1FB79E6
:1021180083F00103DBB2002B16D0BB69DB6C03F044
:102128000103002B14BF01230023DBB20122F9694C
:102138007869FFF727FF386200F0EEFDB969786922
:1021480002F0E1FC00F0F8FD3B6A18462837BD466E
:1021580080BD00BF9C2A002060820000BC82000075
:10216800688200000B00AD0B0400AD0B0000AD0B46
:1021780080B588B000AFF860B9607A603B60FB68F2
:102188001B791A4613469B0013441B012F4A13441C
:102198007B617B695B68002B06D03B6803F0020318
:1021A800002B01D0012300E00023FB74FB7C03F02B
:1021B8000103FB74264BFB61FB7C002B03D07B697E
:1021C8009B6B002B05D07B69DB6C03F01003002BA5
:1021D80001D0204B35E00023BB612DE0BA68BB6914
:1021E8001344FA7C1946F868FFF70EFFF861FB699B
:1021F800174A934205D0FB69174A9342EED0FB6910
:102208001FE000BF7B695B68002B12D17B69DB6C28
:1022180003F00803002B0CD07B694C33D3E8EF1F85
:1022280021F00801C3E8E21F002AF7D1094BFB613E
:1022380006E0BB690133BB61BA697B689A42CDD3BA
:10224800FB6918462037BD4680BD00BF9C2A002088
:102258000000AD0B0800AD0B0B00AD0B80B588B0CE
:1022680000AFF860B9607A603B60FB681B791A467A
:1022780013469B0013441B01624A13447B61FB68AD
:102288001B683B617B6993F84830012B0ED008210D
:102298005D4801F0CAFC0E215C4801F0C6FC40F222
:1022A800773202215A4805F0A3F9FEE7FB681B794B
:1022B800002B03D17B68B3F5803F0ED30821524829
:1022C80001F0B3FC0E21514801F0AFFC4FF45E72EF
:1022D80002214F4805F08CF9FEE7BB68002B0ED1B0
:1022E8000821494801F0A1FC0E21484801F09DFC55
:1022F80040F279320221464805F07AF9FEE77B6818
:10230800002B0ED10821404801F08FFC0E213F48D8
:1023180001F08BFC40F27A3202213D4805F068F961
:10232800FEE73C4BFB617B68002B01D13A4B65E033
:102338007B695B68002B17D13B68002B14D17B6944
:10234800DB6A002B0ED17B697A68DA6200237A682F
:10235800B968F868FFF70CFFF8617B690022DA6258
:10236800FB694BE02D4B49E03B6803F00303002B6E
:1023780007D03B687A68B968F868FFF7F9FE034642
:102388003CE0B968386901F032FD034683F0010387
:10239800DBB2002B08D07B699B6B002B01D1204B53
:1023A800FB610123FB7601E00023FB76FB69194AF8
:1023B800934201D0FB6921E000F0AEFC7B69DB6A47
:1023C800002B16D17B697A68DA627B69BA689A62EF
:1023D800FB7E002B06D07B69DB6C43F002031A46B8
:1023E8007B69DA64FB7E1A467969386902F001FC78
:1023F80001E00A4BFB6100F09FFCFB69184620379F
:10240800BD4680BD9C2A002060820000C882000072
:10241800688200000000AD0B0600AD0B0B00AD0B91
:102428000A00AD0B80B586B000AF78600B46FB7034
:102438007B681B791A4613469B0013441B011D4AEF
:1024480013447B617B681B683B61386902F042FA80
:10245800F8607B69DB6A002B05D1F968386902F0FE
:102468004CFA154B21E07B694C33D3E8EF1F41F060
:102478000801C3E8E21F002AF7D10C21386902F0ED
:1024880089F8FB78002B0BD07969386902F058FB82
:102498004FF49071386901F0B1FF7B690022DA626C
:1024A800F968386902F029FA044B18461837BD460E
:1024B80080BD00BF9C2A00200500AD0B0000AD0BBD
:1024C80080B584B000AFF860B9607A604FF4847169
:1024D800F86801F093FF2021F86801F0D8FF0C4B51
:1024E8001946F86802F004F8F86802F06AFCBB685C
:1024F80000229A60BB6800221A61B86802F02BFCBF
:102508007968B86802F0ECFB00BF1037BD4680BDA3
:1025180010020A0080B586B000AF786039607B6829
:102528001B791A4613469B0013441B015A4A13444D
:102538007B617B681B683B617B694C33D3E8EF2F79
:1025480042F48051C3E8E01F0028F7D1FA60FB6825
:1025580003F48053002B01D0504B99E03B6803F003
:102568000403002B05D07B699B69002B01D14C4BE0
:102578008EE04C4B1946386901F0BAFF386901F012
:10258800DDFF4FF48871386901F038FF4FF4A67108
:10259800386901F033FF4FF4A271386901F02EFF5A
:1025A8003B689B0303F480423B681B0303F400531E
:1025B8001A433B685B0303F400431343BB607B6926
:1025C8004C33BA68D3E8EF0F40EA0200C3E8E10FE2
:1025D8000029F7D17B699B68002B07D17B695B6871
:1025E800002B03D00321786902F05FFB7B699B68AD
:1025F800002B0FD1786902F073FA034683F00103C8
:10260800DBB2002B01D0284B42E0786902F0A3FB33
:10261800264B3DE00421386901F057FF0346002BA3
:1026280017D07B695B68002B13D07B69DB6C03F4E4
:102638000023002B0DD07B694C33D3E8EF1F21F426
:102648000021C3E8E21F002AF7D10621786902F0C9
:102658002CFB7B69DB6C03F48053002B17D04FF401
:10266800A671386901F0DBFE034683F00103DBB293
:10267800002B03D00021386901F08CFF7B695B686F
:10268800002B04D0074B1946386901F00FFF064BA1
:1026980018461837BD4680BD9C2A00200B00AD0B9C
:1026A8000800AD0B10020A000000AD0B0200AD0BD4
:1026B80080B586B000AFF860B9607A603B603D4B8A
:1026C8007B61BB689B68002B0BD0BB685B68002BE9
:1026D8004DD14FF48871F86801F0A1FE0346002B34
:1026E80045D0BB689B68002B04D04FF48871F8680C
:1026F80001F084FEBB687A689A60BB683A68DA6061
:10270800B968F86802F0DCFB0346002B4CD0BB68C4
:102718009A68BB685B6AD118BB68DA68BB685B6A91
:10272800D31A1A46F86801F07CFFBB68DB6C03F427
:102738008053002B38D0BB684C33D3E8EF1F21F40B
:102748008021C3E8E21F002AF7D10021F86801F0D0
:1027580021FF4FF4A271F86801F061FE0346002BD7
:1027680022D04FF4A271F86801F048FE1CE0BB6863
:102778001B69002B15D1BB687A681A61BB683A6877
:102788005A613A687968F86801F04BFFBB68DB6CFE
:1027980003F48043002B08D02021F86801F068FE7C
:1027A80003E0054B7B6100E000BF7B6918461837E2
:1027B800BD4680BD0000AD0B0B00AD0B80B58AB0E7
:1027C80000AFF860B9607A60FB681B7919464B4A1C
:1027D8000B469B000B441B01134448331B78012B09
:1027E8000ED00821464801F020FA1921454801F089
:1027F8001CFA40F2A5520221434804F0F9FEFEE714
:10280800FB681B79002B03D17B68B3F5803F0ED39F
:1028180008213B4801F009FA19213A4801F005FA64
:1028280040F2A6520221384804F0E2FEFEE7BB68F7
:10283800002B0ED10821324801F0F7F9192131484F
:1028480001F0F3F940F2A75202212F4804F0D0FE1C
:10285800FEE77B68002B0ED10821294801F0E5F935
:102868001921284801F0E1F94FF4B5620221264800
:1028780004F0BEFEFEE7FB681B791A4613469B0070
:1028880013441B011D4A1344FB61FB681B68BB61B1
:10289800002387F827301D4B3B62B86902F01AF80D
:1028A8007861FB69DB6C03F48023002B02D0184BA2
:1028B8003B620FE0B968B86901F099FA034683F002
:1028C8000103DBB2002B02D0124B3B6202E0012372
:1028D80087F8273097F82730002B06D07B68BA682E
:1028E800F969B869FFF7E4FE38627969B86902F0F6
:1028F80004F83B6A18462837BD4680BD9C2A00204C
:1029080060820000D8820000688200000000AD0BE1
:102918000500AD0B0A00AD0B80B588B000AFF860BC
:10292800B96011461A460B46FB711346BB7120214C
:10293800F86801F08AFD0346002B14BF0123002329
:10294800FB75BB68DB6C03F48223B3F5805F07D0AB
:10295800FB79002B02D0BB680022DA61254B45E0E9
:10296800F86801F0B7FFB861FB79002B05D1FB7D52
:1029780083F00103DBB2002B07D02021F86801F0B7
:1029880086FD4FF4A113FB6102E04FF48033FB6135
:10299800BB684C33FA69D3E8EF0F40EA0200C3E89A
:1029A800E10F0029F7D1BB79002B03D1BB685B6825
:1029B800002B12D1104B1946F86801F099FD04213B
:1029C800F86801F0E7FDB968F86802F044FB0A4BC3
:1029D800DB43BA691340BB6103E00421F86801F0E6
:1029E800D9FDB969F86801F088FF044B184620370B
:1029F800BD4680BD0500AD0B10020A000000AD0BFE
:102A080080B584B000AF78600B46FB701346BB708E
:102A18007B68002B0ED10821204801F006F914210B
:102A28001F4801F002F940F2696202211D4804F0D2
:102A3800DFFDFEE77B681B7919461B4A0B469B00A6
:102A48000B441B01134448331B78012B0ED008217B
:102A5800124801F0EAF81421114801F0E6F840F2B2
:102A68006A6202210F4804F0C3FDFEE77B681B7908
:102A78001A4613469B0013441B010B4A1344FB6080
:102A88007B681B68BB60BB78FA78F968B868FFF7A1
:102A980043FF034618461037BD4680BD60820000DC
:102AA800F4820000688200009C2A002080B588B06B
:102AB80000AFF860B9607A607A68B968F868FFF7BB
:102AC8007DFEF861FB681B791A4613469B00134488
:102AD8001B01524A1344BB61BB6993F84830012B70
:102AE8000ED008214E4801F0A0F80E214D4801F003
:102AF8009CF840F2796202214B4804F079FDFEE728
:102B0800FB681B79002B03D17B68B3F5803F0ED39C
:102B18000821434801F089F80E21424801F085F860
:102B280040F27A620221404804F062FDFEE7BB6889
:102B3800002B0ED108213A4801F077F80E213948C8
:102B480001F073F840F27B620221374804F050FD2F
:102B5800FEE77B68002B0ED10821314801F065F8AB
:102B68000E21304801F061F840F27C6202212E48C3
:102B780004F03EFDFEE7FB692C4A934201D0FB6955
:102B880048E003237B617969F868FFF7C3FCF861C3
:102B9800FB69274A934205D0FB69244A934201D036
:102BA800FB6937E0214BFB61BB695B68002B30D1C7
:102BB80000233B6107F110031946F86800F03EF85E
:102BC800F861FB691A4A9342F4D0FB69194A9342A7
:102BD80003D03B697A689A4202D9174BFB6118E027
:102BE80001220121F868FFF70BFFF861FB690F4A22
:102BF80093420ED008210A4801F017F80E2109481F
:102C080001F013F840F29C620221074804F0F0FC3E
:102C1800FEE7FB6918462037BD4680BD9C2A002088
:102C28006082000008830000688200000000AD0B8D
:102C38000B00AD0B0C00AD0B0800AD0B80B584B0DC
:102C480000AF786039607B681B791A4613469B0091
:102C580013441B01284A1344FB60FB6893F848306F
:102C6800012B0ED00821254800F0DFFF142124484D
:102C780000F0DBFF40F2A7620221224804F0B8FC12
:102C8800FEE7FB685B68002B01D01F4B2FE07B68D9
:102C98001B68184601F06CFC034683F00103DBB2A5
:102CA800002B0CD03B68002B07D07B681B681846AC
:102CB80001F0C8FC02463B681A60144B17E07B68B9
:102CC8001B684FF48871184601F0A9FB0346002BD6
:102CD8000CD03B68002B07D07B681B68184601F0B6
:102CE800B1FC02463B681A60094B00E0094B1846E4
:102CF8001037BD4680BD00BF9C2A002060820000BE
:102D080018830000688200000800AD0B0C00AD0BB2
:102D18000000AD0B0B00AD0B80B400AF72B600BF66
:102D2800044B1B680133034A136000BFBD4680BCD7
:102D3800704700BFEC2A002080B500AF0F4B1B681E
:102D4800002B0DD108210E4800F06FFF1B210D4804
:102D580000F06BFF2C2202210B4804F049FCFEE72F
:102D6800064B1B68013B054A1360044B1B68002B8C
:102D780001D162B600BF00BF80BD00BFEC2A0020B1
:102D88002C830000388300003483000080B487B0AF
:102D980000AFF860B9607A60FB681B687B617B698B
:102DA800114A1A63BB68002B01D0042200E00022FC
:102DB8007B68002B01D0022300E000231A437B69C3
:102DC8005A607B695B6843F001027B695A60BFF314
:102DD8004F8F00BFBFF36F8F00BF002318461C370B
:102DE800BD4680BC704700BF04AAFF0080B582B012
:102DF80000AF7860084611461A460346FB700B463A
:102E0800BB7013467B70FA787B68A03253F8323077
:102E180003F48073002B0ED00821244800F005FF2E
:102E28001521234800F001FF4FF46C72022121485C
:102E380004F0DEFBFEE7FB787A68A033DB0013447E
:102E48005B6803F48073002B0ED00821174800F04C
:102E5800ECFE1521164800F0E8FE40F2B1320221DE
:102E6800144804F0C5FBFEE77B783A7C002A02D0C0
:102E78004FF4807100E00021FA7819437B68A03292
:102E880043F83210BA783B7C002B02D04FF48071A3
:102E980000E00021FB780A437968A033DB000B448B
:102EA8005A6000BF0837BD4680BD00BF548300008C
:102EB800C08300005C83000080B584B000AFF86078
:102EC8007B600B46FB721346BB72FA7AFB6802F50D
:102ED800C07253F8223003F48073002B0ED00821FF
:102EE800134800F0A2FE1821124800F09EFE40F29E
:102EF800CE320221104804F07BFBFEE7BB7A002BA0
:102F080001D0102200E000227B6813433A7E002A99
:102F180002D04FF4807100E00021FA7A1943FB686F
:102F280002F5C07243F8221000BF1037BD4680BDBD
:102F380054830000608300005C83000080B584B087
:102F480000AFF8607B600B46FB721346BB72FA7ADF
:102F5800FB6802F5E07253F8223003F48073002B0B
:102F68000ED00821134800F060FE1621124800F028
:102F78005CFE40F2DB320221104804F039FBFEE728
:102F8800BB7A002B01D0102200E000227B6813439B
:102F98003A7E002A02D04FF4807100E00021FA7ACC
:102FA8001943FB6802F5E07243F8221000BF10379E
:102FB800BD4680BD54830000788300005C83000018
:102FC80080B584B000AFF860B96011461A460B4668
:102FD800FB711346BB71FB68BA6802F5007253F8BF
:102FE8002230002B0EDB0821234800F01EFE17219B
:102FF800224800F01AFE4FF47A720221204804F0A9
:10300800F7FAFEE7FB68BA6802F5007253F8223057
:1030180003F48073002B0ED00821174800F005FE3A
:103028001721164800F001FE40F2E9320221144847
:1030380004F0DEFAFEE7FB79002B01D0102200E055
:103048000022BB79002B01D0202300E0002313438A
:103058003A7E002A02D04FF4807200E0002242EA51
:103068000301FB68BA6802F5007243F8221000BF3A
:103078001037BD4680BD00BF54830000F8830000B0
:103088005C83000080B582B000AF00233B603B68E2
:1030980043F001033B603B6843F002033B603B683D
:1030A80043F004033B6000237B600AE0094A7B6825
:1030B80052F823303968184602F0F2F87B68013379
:1030C8007B607B68002BF1D000BF00BF0837BD468E
:1030D80080BD00BF2C22002080B582B000AF002345
:1030E8007B6000233B6032E01D4A3B6852F8233086
:1030F8004FF48471184602F0C3F80346002B03D03E
:103108007B6843F004037B60154A3B6852F8233020
:103118004FF48071184602F0B3F80346002B03D031
:103128007B6843F001037B600D4A3B6852F823300B
:103138004FF48271184602F0A3F80346002B03D01F
:103148007B6843F002037B603B6801333B603B686C
:10315800002BC9D07B6818460837BD4680BD00BF24
:103168002C22002080B582B000AF00237B601DE0D8
:10317800124A7B6852F823304FF48071184602F0E7
:103188006AF80E4A7B6852F823304FF48271184669
:1031980002F061F8094A7B6852F823304FF48471D1
:1031A800184602F058F87B6801337B607B68002B77
:1031B800DED000BF00BF0837BD4680BD2C220020EE
:1031C80080B584B002AF00237B6017E07B68DBB278
:1031D8001946174802F072F8034683F00103DBB280
:1031E800002B08D07B68D9B2002300930723012263
:1031F8000F48FFF761FE7B6801337B607B683F2BDC
:10320800E4D900233B600BE03B68D9B2002300936C
:10321800072301220648FFF791FE3B6801333B6014
:103228003B683F2BF0D900BF00BF0837BD4680BDC3
:103238000030005080B58AB002AFF860B9603B60DA
:103248001346FB71FB689B0BBB61BB689B0B7B61E7
:10325800BB69FB610CE0FB69D9B2FA7997F82830B1
:1032680000933B680748FFF727FEFB690133FB61C2
:10327800FA697B699A42EED900BF00BF2037BD4684
:1032880080BD00BF0030005080B58AB002AFF86042
:10329800B9603B601346FB71FB6803F160435B0B4D
:1032A800BB61BB6803F160435B0B7B61BB69FB617E
:1032B8000CE0FB69D9B2FA7997F8283000933B689B
:1032C8000748FFF73BFEFB690133FB61FA697B693D
:1032D8009A42EED900BF00BF2037BD4680BD00BF6F
:1032E8000030005080B586B002AF786039603A6827
:1032F8007B68D31A0133FB607B68C3F30D03C3F506
:103308008043BB60FA68BB689A420DD908213048EF
:1033180000F08BFC2D212F4800F087FCF8220221B9
:103328002D4804F065F9FEE77A68BB681344C3F3D7
:103338000D03002B0DD00821254800F076FC2D2127
:10334800244800F072FCFB220221234804F050F9C3
:10335800FEE7BB685A1EBB681340002B0DD008213E
:103368001B4800F062FC2D211A4800F05EFCFF2289
:103378000221194804F03CF9FEE7BB681F2B03D96A
:10338800BB68B3F5805F0ED90821114800F04DFCE9
:103398002D21104800F049FC4FF4817202210E489B
:1033A80004F026F9FEE7BB68B3FA83F3DBB2C3F196
:1033B8001B03DAB27B689B0BDBB201210091002171
:1033C8000648FFF713FD00BF1037BD4680BD00BF9C
:1033D80054830000908300005C830000003000509C
:1033E80080B586B002AF78600B46FB707B681B0B1C
:1033F800FB73124AFB7B03F5007352F8233003F08A
:103408000303002B0ED108210D4800F00EFC1D21EE
:103418000C4800F00AFC4FF4A77202210A4804F095
:10342800E7F8FEE7F97BFB780093012301220348C4
:10343800FFF7C6FD00BF1037BD4680BD0030005005
:1034480054830000D88300005C83000080B586B0F8
:1034580002AF78600B46FB707B681B0BFB73124A4C
:10346800FB7B03F5007352F8233003F00303012BB1
:103478000ED108210D4800F0D8FB21210C4800F09E
:10348800D4FB4FF4B67202210A4804F0B1F8FEE703
:10349800F97BFB780093002300220348FFF790FD97
:1034A80000BF1037BD4680BD003000505483000077
:1034B800108400005C83000080B582B000AF7860A3
:1034C8001621034800F0B1FB00BF0837BD4680BD98
:1034D8003484000080B500AFFFF7FEFD0346034AC1
:1034E80013600248FFF7E8FF00BF80BD38310020B5
:1034F80080B582B000AF78600C220449786807F084
:103508002EFE00BF0837BD4680BD00BF3831002001
:1035180080B483B000AF0C4BDB687B607B689BB2E8
:103528007B607B6823F008037B607B6843F0BF63A4
:1035380043F400337B60044A7B68D36000BF0C37D8
:10354800BD4680BC704700BF00ED00E080B584B088
:1035580000AF786039603B68002B21D027211248E2
:1035680000F063FB7A680C21104804F041F800234E
:10357800FB6011E00122FB6802FA03F31A463B687C
:103588001340002B05D0FB681A460621084804F0B2
:103598002FF8FB680133FB60FB681F2BEADD00E0B6
:1035A80000BF1037BD4680BD4C8400007484000005
:1035B8008084000080B483B000AF78603960064A28
:1035C8007B681360054A3B681360002318460C3774
:1035D800BD4680BC704700BF443100204831002000
:1035E80090B589B000AF7860544B1B687A6852690F
:1035F8005A62524B1B687A6892699A624F4B1B68F1
:103608007A68D269DA624D4B1B687A68126A1A6363
:103618004A4B1B687A68526A5A63484B1B687A6837
:10362800926A9A63454B1B687A68D26ADA63434B9D
:103638001B687A68126B1A64404B1B687A68526B75
:103648005A603E4B1B687A68926B9A603B4B1B68CA
:103658007A68D26BDA60394B1B687A68126C1A6127
:10366800364B1B687A68526C5A61344B1B687A680F
:10367800926C9A61314B1B687A68D26CDA612F4B75
:103688001B687A68126D1A622C4B1B687A68926DF7
:103698005A652A4B1B687A68D26D9A65274B1B6856
:1036A8007A68126FDA65254B1B687A68126E1A669B
:1036B800224B1B687A68926E5A66204B1B687A68A0
:1036C800526F9A661D4B1B68EFF388827A617A699C
:1036D8005A641A4B1B68EFF38982BA61BA699A6413
:1036E800164B1B687A685268DA64144B1B68EFF350
:1036F8009482FA61FA691A65104B1B687A68126835
:103708001A6707F108031846FFF7F2FE0B4B1B6810
:10371800BA68DA66094B1B6801221A70084B1B68E5
:103728001C4664086400204621462246234607F0CA
:10373800C2FE00BF2437BD4690BD00BF4431002003
:103748004831002080B5A0B000AF3B461846FDF7D1
:1037580093FC7B68002B14BF0123002387F87F307C
:1037680097F87F3083F00103DBB2002B15D17B681B
:10377800184601F078FE0346002B0ED13B68052B56
:1037880001D0072B0BD100BF074B1B68002B07D0BC
:103798003B461846FFF724FF02E000BF00E000BFE9
:1037A8008037BD4680BD00BF4831002080B400AFDF
:1037B800BFF34F8F00BF064BDB6803F4E062044998
:1037C800044B1343CB60BFF34F8F00BF00BFFDE72F
:1037D80000ED00E00400FA0580B584B000AFF860A1
:1037E800B9607A60FB68042B24D801A252F823F050
:1037F8000D38000019380000253800003D38000059
:10380800313800007968B86800F068F8034612E0BB
:103818007968B86800F0D4F803460CE07968B868AD
:1038280001F034FF034606E07968B86801F031FE1C
:10383800034600E0032318461037BD4680BD00BF8D
:1038480080B584B000AF78607B681B68184601F0CB
:1038580096FE034683F00103DBB2002B0ED008214D
:10386800194800F0E2F91921184800F0DEF940F291
:10387800CA320221164803F0BBFEFEE70023FB60B4
:10388800786801F0AAFE0346002B02D0012B03D072
:1038980005E0104BFB6011E00F4BFB600EE00821C8
:1038A800094800F0C2F91921084800F0BEF940F2B1
:1038B800D3320221064803F09BFEFEE7FB68184658
:1038C8001037BD4680BD00BFC0840000CC84000016
:1038D800C8840000002584500028845080B58CB02E
:1038E80000AF7860396001237B6206233B627B6806
:1038F8005B680C2B03D13B685B68042B01D0022367
:1039080058E07B681B68FB613B681B68BB61BB694F
:103918004FF0FF321A600223FB62FB691B68002B21
:1039280003D0FB699B68002B01D1022342E0FB69AD
:103938001B681946FB699A683B6A786A04F076FA4C
:1039480078617B69002B01D0022333E00023BB623E
:103958002CE01A4ABB6A52F833303B61174ABB6AFB
:10396800DB0013445B68FB60FB695B683A699A4259
:1039780019D8FB695A68FB699B681A443969FB685E
:103988000B449A420FD8FB691868FB695B681946B3
:10399800FB699B681A4607F0E2FBBB6900221A60C4
:1039A8000023FB6205E0BB6A0133BB62BB6A042BE0
:1039B800CFD9FB6A18463037BD4680BD88840000E1
:1039C80080B48FB000AF786039607B685B680C2B7F
:1039D80003D13B685B68042B01D0022384E07B6839
:1039E8001B687B623B681B683B623B6A01221A606A
:1039F80002237B6300233B6372E03E4A3B6B1B015F
:103A080013441B68FB613B4A3B6B1B0113440433A3
:103A18001B68BB6100237B617B6A1B68FA699A4259
:103A28005BD13B6A02221A607B6A9B68BA699A4238
:103A380053D17B69002B36D02E4A3B6B1B011344B4
:103A480008331B68002B2ED0002387F82F30002363
:103A5800BB6219E0274A3B6B1B01134408331A6801
:103A6800BB6A9B0013441B683B617B6A5A687B6A8C
:103A78009B6813403A699A4203D1012387F82F3093
:103A880006E0BB6A0133BB62BB6A7A699A42E1D835
:103A980097F82F3083F00103DBB2002B03D03B6A89
:103AA80003221A601FE0FB691B68FB607B6A9B6846
:103AB800DB43FA681340FB607B6A5A687B6A9B6841
:103AC8001340FA681343FB60FB69FA681A603B6AA3
:103AD80000221A6000237B6305E03B6B01333B63E4
:103AE8003B6B002B89D07B6B18463C37BD4680BCAE
:103AF800704700BFB084000080B483B000AF786026
:103B08007B689B0903F00103002B14BF01230023EA
:103B1800DBB218460C37BD4680BC704780B483B012
:103B280000AF78607B6803F00803002B14BF012303
:103B38000023DBB218460C37BD4680BC704780B501
:103B480084B000AF78607868FFF7D6FF0346002B93
:103B580011D07B6803F00403002B07D07868FFF7C7
:103B6800DDFF0346002B01D0012300E0002303F012
:103B78000103DBB219E0EFF39483BB60BB6803F089
:103B88000203002B14BF01230023FB73FB7B002BD4
:103B980007D07868FFF7C2FF0346002B01D0012346
:103BA80000E0002303F00103DBB218461037BD46DE
:103BB80080BD80B588B000AFF860B9607A60F868F9
:103BC800FFF7BDFF0346FB77F868FFF795FF03464D
:103BD800002B06D0FB7F002B01D07B680DE0BB6873
:103BE8000BE0FB7F002B04D0EFF38983BB61BB693B
:103BF80003E0EFF388837B617B6918462037BD4675
:103C080080BD80B582B000AF03463960FB713B6868
:103C18005B681846FFF770FF3B685B681846FFF75C
:103C28007DFF00BF0837BD4680BD80B582B000AFBC
:103C38007860396039687868FDF7AEFA0346184647
:103C48000837BD4680BD80B483B000AF78607B681C
:103C580003F06043B3F1005F0CBF01230023DBB224
:103C680018460C37BD4680BC704780B483B000AF9F
:103C7800786039603B685A783B689B781343DBB2BD
:103C88001A463B689B8813433A6812781A437B6844
:103C9800C3F86C2500BF0C37BD4680BC704780B4A4
:103CA80083B000AF786039607B683A68C3F8242530
:103CB80000BF0C37BD4680BC704780B400AF0023FE
:103CC80043F001031846BD4680BC704780B582B0FA
:103CD80000AF78607B681846FEF702F97B6800221F
:103CE80083F82420002318460837BD4680BD80B4D9
:103CF80083B000AF03463960FB71FB79022B01D119
:103D0800002301E06FF0030318460C37BD4680BC62
:103D1800704780B485B000AFF860B9607A606FF022
:103D2800030318461437BD4680BC704780B483B07F
:103D380000AF78607B681B6918460C37BD4680BCAD
:103D4800704780B483B000AF78607B685B691846C1
:103D58000C37BD4680BC704780B483B000AF0023E9
:103D68007B607B6818460C37BD4680BC704780B4C2
:103D780083B000AF0346FB716FF0030318460C379E
:103D8800BD4680BC704780B483B000AF00237B6021
:103D98007B6818460C37BD4680BC704780B483B03A
:103DA80000AF78607B681B0B5BB218460C37BD46CA
:103DB80080BC704780B483B000AF78607B681B68B4
:103DC80000BF0C37BD4680BC704780B400AF00BF51
:103DD800BD4680BC704780B400AF00BFBD4680BC04
:103DE800704780B400AF00BFBD4680BC704780B448
:103DF80083B000AF786039603B6803F06043B3F18B
:103E0800005F0CBF01230023DBB218460C37BD4608
:103E180080BC704780B483B000AF786039607A683E
:103E28003B6813441B68002B14BF01230023DBB23B
:103E380018460C37BD4680BC704780B582B000AFCD
:103E480078600B467B807B887A68134400221A606E
:103E58007B887A6813441846FFF7ACFF00BF083721
:103E6800BD4680BD80B582B000AF78600B467B80D0
:103E78007B8819467868FFF7CDFF03461846083750
:103E8800BD4680BD80B483B000AF786039607B6880
:103E9800D3F800223B68134018460C37BD4680BC57
:103EA800704780B483B000AF786039607B68D3F81E
:103EB80000223B681A437B68C3F8002200BF0C3716
:103EC800BD4680BC704780B483B000AF786039606D
:103ED8007B68D3F800223B68DB431A407B68C3F851
:103EE800002200BF0C37BD4680BC704780B483B049
:103EF80000AF786039607B683A68C3F8042300BF74
:103F08000C37BD4680BC704780B483B000AF786082
:103F180039607B68D3F804233B68134018460C3794
:103F2800BD4680BC704780B483B000AF786039600C
:103F38007B683A68C3F8082300BF0C37BD4680BCCD
:103F4800704780B483B000AF78607B68D3F8803462
:103F580018460C37BD4680BC704780B483B000AFAC
:103F6800786039607B683A68C3F8802400BF0C37F2
:103F7800BD4680BC704780B483B000AF78607B6872
:103F88000822C3F8002500BF0C37BD4680BC704727
:103F980080B483B000AF78607B680022C3F8002546
:103FA80000BF0C37BD4680BC704780B483B000AFFB
:103FB80078607B68D3F80035082B0CBF01230023F9
:103FC800DBB218460C37BD4680BC704780B485B05C
:103FD80000AFF860B9607A60FB68BA68C3F80C256E
:103FE800FB687A68C3F8142500BF1437BD4680BC47
:103FF800704780B582B000AF78604FF0FF324FF065
:10400800FF317868FFF7E2FF00BF0837BD4680BD83
:1040180080B483B000AF78607B68D3F80C3518465D
:104028000C37BD4680BC704780B483B000AF786061
:104038007B68D3F8143518460C37BD4680BC7047EA
:1040480080B483B000AF78607B68D3F80835184631
:104058000C37BD4680BC704780B483B000AF786031
:104068007B68D3F8103518460C37BD4680BC7047BE
:1040780080B485B000AFF860B9607A60FB68BA6850
:10408800C3F80825FB687A68C3F8102500BF143701
:10409800BD4680BC704780B582B000AF78604FF0F5
:1040A800FF324FF0FF317868FFF7E2FF00BF0837B3
:1040B800BD4680BD80B483B000AF78600B46FB700E
:1040C800FB787A68134401221A6000BF0C37BD469A
:1040D80080BC704780B483B000AF786039603B68BB
:1040E8005A783B689B781343DBB21A463B689B8837
:1040F80013433A6812781A437B68C3F86C2500BFEB
:104108000C37BD4680BC704780B483B000AF786080
:1041180039607B683A68C3F8242500BF0C37BD4670
:1041280080BC704780B483B000AF786039607B682A
:104138003A68C3F8482500BF0C37BD4680BC7047B5
:1041480080B483B000AF786039603A687B68C3F8A0
:10415800442500BF0C37BD4680BC704780B584B08D
:1041680000AFF860B9607A60B968F868FFF7E8FFEF
:104178007968F868FFF7D6FF00BF1037BD4680BDE5
:1041880080B483B000AF78607B68D3F844351846B4
:104198000C37BD4680BC704780B483B000AF7860F0
:1041A8007B68D3F84C3518460C37BD4680BC704741
:1041B80080B483B000AF786039607B683A68C3F830
:1041C800382500BF0C37BD4680BC704780B483B02B
:1041D80000AF786039603A687B68C3F8342500BF5F
:1041E8000C37BD4680BC704780B584B000AFF8601E
:1041F800B9607A60B968F868FFF7E8FF7968F86825
:10420800FFF7D6FF00BF1037BD4680BD80B483B02E
:1042180000AF78607B68D3F83C3518460C37BD464C
:1042280080BC704780B582B000AF786039603B6869
:104238001B6919467868FFF767FF3B68143319460E
:104248007868FFF747FF3B689B7E83F00103DBB28A
:10425800002B07D03B6819683B685B681A4678688A
:10426800FFF7B4FE3B681B7D012B0ED13B689B7E9C
:1042780083F00103DBB2002B07D03B6899683B68E9
:10428800DB681A467868FFF7F3FEFFF79EFD00BF6C
:104298000837BD4680BD80B584B000AFF860B9600E
:1042A80011461A460B46FB711346BB714FF48072D8
:1042B800B968F86800F0D7F94FF48272B968F868FD
:1042C80000F0D1F94FF48472B968F86800F0CBF9BE
:1042D8004FF48872B968F86800F0C5F94FF48E7227
:1042E800B968F86800F0BFF94FF49072B968F868D7
:1042F80000F0B9F94FF49272B968F86800F0B3F9B0
:104308004FF4A272B968F86800F0ADF94FF4A672DC
:10431800B968F86800F0A7F94FF4A872B968F868A6
:1043280000F0A1F94FF4AC72B968F86800F09BF995
:10433800FFF74BFDF868FFF731FD03461A46FB7996
:1043480019461046FDF72EFBF868FFF727FD0346D0
:104358001846FDF7E7FABB79002B03D0B968F8686F
:10436800FFF7C4FDFFF731FD00BF1037BD4680BD24
:1043780080B582B000AF78607868FFF70FFD03461C
:104388001846FDF7EBFAFFF720FD00BF0837BD46DA
:1043980080BD80B582B000AF78603960FFF721FD3D
:1043A8007868FFF735FE02463B681A607868FFF7C1
:1043B8003BFE02463B685A607868FFF741FE0246BA
:1043C8003B689A607868FFF747FE02463B68DA6008
:1043D800FFF701FD00BF0837BD4680BD80B582B03C
:1043E80000AF78607868FFF704FE7868FFF753FE3F
:1043F800FFF7EBFC00BF0837BD4680BD80B582B033
:1044080000AF78600B467B807B8819467868FFF799
:1044180014FDFFF7DAFC00BF0837BD4680BD80B544
:1044280084B000AF78600B467B80FFF7D4FC7B88B4
:1044380019467868FFF716FD0346FB73FFF7CBFCB8
:10444800FB7B18461037BD4680BD80B584B000AFF1
:1044580078603960FFF7C5FC39687868FFF712FDA6
:10446800F860FFF7B8FCFB6818461037BD4680BDFA
:1044780080B582B000AF7860396039687868FFF736
:1044880010FDFFF7A2FC00BF0837BD4680BD80B510
:1044980082B000AF7860396039687868FFF713FD3B
:1044A800FFF793FC00BF0837BD4680BD80B582B0DA
:1044B80000AF7860396039687868FFF717FDFFF753
:1044C80084FC00BF0837BD4680BD80B584B000AF0E
:1044D80078603960FFF785FC39687868FFF714FD64
:1044E800F860FFF778FCFB6818461037BD4680BDBA
:1044F80080B582B000AF7860396039687868FFF7B6
:1045080012FDFFF762FC00BF0837BD4680BD80B5CD
:1045180084B000AF7860FFF764FC7868FFF711FD9E
:10452800F860FFF75EFCF9687868FFF716FDFFF79B
:1045380058FCFB6818461037BD4680BD80B582B070
:1045480000AF78607868FFF716FDFFF73EFC00BF04
:104558000837BD4680BD80B582B000AF7860786806
:10456800FFF716FDFFF731FC00BF0837BD4680BDD9
:1045780080B584B000AF7860FFF733FC7868FFF748
:1045880014FD0346FB73FFF726FCFB7B1846103728
:10459800BD4680BD80B582B000AF78600B46FB7029
:1045A800FB7819467868FFF785FDFFF70EFC00BF1A
:1045B8000837BD4680BD80B584B000AFF860B960EB
:1045C8007A60BB68002B06D07A68B968F868FFF78C
:1045D800C5FDFFF7FAFB00BF1037BD4680BD80B5AB
:1045E80084B000AF7860FFF7F6FB7868FFF7C8FD86
:1045F800F860FFF7F0FBFB6818461037BD4680BD32
:1046080080B584B000AF7860FFF7E5FB7868FFF706
:10461800C3FDF860FFF7DFFBFB6818461037BD469F
:1046280080BD80B584B000AFF860B9607A607A6800
:10463800B968F868FFF7D8FDFFF7C7FB00BF103768
:10464800BD4680BD80B584B000AF7860FFF7C3FB7E
:104658007868FFF7DBFDF860FFF7BDFBFB681846DD
:104668001037BD4680BD80B584B000AFF860B96032
:104678001346FB80FB88A3F580739B0801229A40B0
:10468800BB681340002B04D0FB881946F868FFF775
:10469800D4FB00BF1037BD4680BD80B584B002AFE3
:1046A8007860002301930023009300230122012155
:1046B8007868FDF713FA00BF0837BD4680BD80B59E
:1046C80084B002AF78600B46FB70FB780022019241
:1046D80000220092002200217868FDF7FFF900BF50
:1046E8000837BD4680BD80B584B002AF786000232E
:1046F8000193002300930023012200217868FDF72D
:10470800EDF900BF0837BD4680BD80B584B000AF65
:1047180078603B1D1846FDF793F9F8607B68012225
:1047280002FA03F31946F86800F004F800BF1037DE
:10473800BD4680BD80B483B000AF786039607B68C7
:104748003A689A6000BF0C37BD4680BC704780B499
:1047580085B000AF78607B685B09BB600023FB60B5
:10476800BB68002B03D0BB68012B04D007E04FF0D7
:10477800FF33FB6005E04FF6FF73FB6001E00023A9
:104788000EE07B6803F01F037B60FA687B6822FAFF
:1047980003F303F00103002B14BF01230023DBB252
:1047A80018461437BD4680BC704780B485B000AF4A
:1047B80078607B681B68FB60FB6803F01F027B68FE
:1047C8001A60FB685B0918461437BD4680BC704701
:1047D80080B582B000AF78607868FFF75EFFFFF7BA
:1047E800F4FA00BF0837BD4680BD80B582B000AF7F
:1047F80078600B46FB70FB7819467868FFF75FFF17
:10480800FFF7E3FA00BF0837BD4680BD80B582B028
:1048180000AF78607868FFF766FFFFF7D6FA00BF49
:104828000837BD4680BD80B582B000AF7860786833
:10483800FFF76BFFFFF7C9FA00BF0837BD4680BD19
:1048480080B586B000AF78607B681B6803F264535C
:10485800FB607B681B6803F5AD63BB60BB681B68C6
:10486800012B05D17B681B680C211846FFF792FEC7
:10487800FB681B68012B29D17B681B681846FFF76A
:104888005DFE7B681B6804211846FFF783FE002342
:10489800FB7549F640433B61FB681B68002B02D15E
:1048A8000123FB7508E00120FDF7A6F83B69013BF1
:1048B8003B613B69002BEFD17B681B681846FFF70B
:1048C80026FE7B681B681846FFF745FE00BF1837B1
:1048D800BD4680BD80B584B000AF78604FF0FF3131
:1048E8007868FFF7F2FDF860F9687868FFF700FE6E
:1048F800FB6818461037BD4680BD80B582B000AF52
:104908007860396039687868FFF7D0FD00BF0837EC
:10491800BD4680BD80B582B000AF78600B46FB70A5
:104928004FF4AC717868FFF77AFD0346002B0DD180
:10493800FB7883F00103DBB2002B09D04FF49071B0
:104948007868FFF76CFD0346002B01D0012300E0D7
:10495800002303F00103DBB218460837BD4680BDCB
:1049680080B584B000AF78604FF4A6717868FFF71F
:1049780056FD0346002B3AD07868FFF7DFFD042187
:104988007868FFF707FE0023FB736423BB604FF4CE
:10499800A2717868FFF743FD0346002B07D14FF457
:1049A80092717868FFF73BFD0346002B02D0012384
:1049B800FB7308E00A20FDF71FF8BB68013BBB60EA
:1049C800BB68002BE3D14FF4A6717868FFF716FD9A
:1049D8004FF488717868FFF711FD4FF4A271786879
:1049E800FFF70CFD7868FFF7B6FDFB7B00E00123BD
:1049F80018461037BD4680BD80B586B000AF7860D8
:104A08000B46FB700023FB737868FFF797FD07F1EF
:104A18000F03002219467868FFF7CDFD0821786852
:104A2800FFF7B8FD0C217868FFF7B4FD0023FB758C
:104A38000A233B6101217868FFF76CFF0346002BCE
:104A480002D00123FB7508E00120FCF7D5FF3B6984
:104A5800013B3B613B69002BECD1FB7D83F00103FB
:104A6800DBB2002B01D0002308E04FF49071786886
:104A7800FFF7C4FC7868FFF76EFD01231846183766
:104A8800BD4680BD80B584B000AFF860B9607A607B
:104A9800FB707A68B968F868FFF78DFD4FF490717C
:104AA800F868FFF7ABFC4FF4AC71F868FFF7A6FCA9
:104AB8004FF4A871F868FFF7A1FCF868FFF73EFD0E
:104AC800FB78002B04D04FF48001F868FFF7EEFC68
:104AD8000821F868FFF75EFD00BF1037BD4680BDAE
:104AE80080B483B000AF78607B68DB6C1B0B03F08D
:104AF8000103002B14BF01230023DBB218460C3737
:104B0800BD4680BC704780B582B000AF7860396020
:104B18004FF4AC717868FFF782FC0346002B0BD08A
:104B28003868FFF7DDFF034683F00103DBB2002B93
:104B380002D07868FFF70FFD00BF0837BD4680BD7B
:104B480080B584B000AF786039603B68DB6C03F0F7
:104B58000103002B14BF01230023BB730123FB7344
:104B680000BFBB7B19467868FFF7D4FE034683F085
:104B78000103DBB2002BF4D1FEF7CEF8BB7B83F048
:104B88000103DBB2002B1AD04FF490717868FFF75D
:104B980046FC0346002B0FD00C217868FFF7FAFC7F
:104BA80000BF01217868FFF7B5FE034683F00103D3
:104BB800DBB2002BF5D10FE00023FB730CE04FF4C0
:104BC800AC717868FFF72BFC034683F00103DBB276
:104BD800002B01D00023FB73FB7B002B03D039682B
:104BE8007868FFF790FFFEF7A7F800BF1037BD46BB
:104BF80080BD80B588B000AFF860B9601346FB711E
:104C0800BB68DB6C03F00103002B14BF01230023F6
:104C1800DBB21946F868FFF77DFE034683F001030F
:104C2800DBB2002B0DD0BB68DB6C43F004031A46E3
:104C3800BB68DA644FF48001F868FFF737FC00239B
:104C48002FE0FB79002B1BD0BB68DA6ABB681B6CB2
:104C5800D21ABB68DB6B934228BF13467B61BB68E3
:104C6800986BBB689A6ABB681B6C13447A691946CF
:104C780006F075FABB689B6BFB617B69BB6105E05D
:104C8800BB689B6AFB61BB68DB6ABB61BB684FF0B2
:104C9800FF325A640123BA69F969F868FFF7F2FE2E
:104CA800012318462037BD4680BD80B586B000AFC9
:104CB80078600B46FB7007F1080300221A605A60FF
:104CC8009A60DA60FB783B727B685B687A68116887
:104CD80007F108021046984700BF1837BD4680BD47
:104CE80080B586B000AF7860396007F1080300220C
:104CF8001A605A609A60DA6004233B723B68FB6072
:104D08007B685B687A68116807F108021046984763
:104D180000BF1837BD4680BD80B588B000AFF860C9
:104D2800B9607A6007F1100300221A605A609A602D
:104D3800DA6001233B74BB687B617B68BB61FB68FD
:104D48005B68FA68116807F110021046984700BFBF
:104D58002037BD4680BD80B483B000AF78607B68E3
:104D68004C33D3E8EF1F21F47F0121F47041C3E8ED
:104D7800E21F002AF5D100BF0C37BD4680BC704742
:104D880080B582B000AF78604FF4AC717868FFF7F7
:104D980046FB034683F00103DBB2002B07D14FF437
:104DA80080017868FFF791FB0346002B01D00123AF
:104DB80000E0002303F00103DBB218460837BD46C4
:104DC80080BD80B582B000AF7860FDF7A5FF786838
:104DD800FFF7D6FF034683F00103DBB2002B02D0B6
:104DE8007868FFF7B8FBFDF7A7FF00BF0837BD4697
:104DF80080BD80B58CB000AFF860B9607A60FB7098
:104E0800002387F82F30FB681B6ABB6297F82F30A6
:104E180083F00103DBB2002B05D07A68B968F86823
:104E2800FFF77AFF49E0BB6A1B68002B44D0BB6AD6
:104E38001A68BB6A9B6A13447A68B968184606F010
:104E48008EF9BB6A9A6A7B681A44BB6A9A62BB6A23
:104E58005A68BB6A9B6A9A420CBF0123002387F8F1
:104E6800273097F82730002B02D1FB78002B24D06D
:104E7800BB6A1B683B62BB6A9B6AFB61BB6A002218
:104E88009A62BA6ABB6A083393E8030082E80300AF
:104E9800BB6A00229A60BB6A0022DA60BB6A5B6860
:104EA800002B03D0BB6A012283F82D20FA69396AE6
:104EB800F868FFF731FF00E000BF3037BD4680BD1E
:104EC80080B586B000AF786039603B68DB69002B3D
:104ED80001D101236EE03B68DA693B68DB689A42DE
:104EE8004DD33B689B687B613B68DB683B613B68F3
:104EF80000229A603B680022DA603B689B693A6945
:104F08001946786906F02BF93B68DA693B69D21AC9
:104F18003B68DA613B6898693B689A693B69D118D4
:104F28003B68DB691A4606F0FFF83B685B68002BB4
:104F380023D03B68DB6C03F40053002B14BF012320
:104F48000023FB73FB7B002B09D03B684C33D3E871
:104F5800EF1F41F48021C3E8E21F002AF7D10023A4
:104F68003A6979693868FFF744FFFB7B002B04D066
:104F7800002239687868FDF7A3FA00231AE03B6835
:104F880098683B6899693B68DB691A4606F0E7F858
:104F98003B68DA693B685A623B680022DA613B6821
:104FA8004C33D3E8EF1F41F40021C3E8E21F002A85
:104FB800F7D1012318461837BD4680BD80B582B0A9
:104FC80000AF786039603B68DB6C03F40043002B6A
:104FD80003D13B680022DA613AE04FF4A6717868A1
:104FE800FFF70CFA3B689B69052219467868FFF7BA
:104FF80018FB4FF488717868FFF700FA2C2178685D
:10500800FFF7C8FA00BF4FF488717868FFF707FA0E
:10501800034683F00103DBB2002BF4D14FF488710F
:105028007868FFF7EBF94FF4A6717868FFF7F7F99E
:105038000346002B04D07868FFF704FB034600E022
:1050480000233A68D3614FF4A6717868FFF7D6F960
:105058000837BD4680BD80B582B000AF7860396042
:1050680000BF4FF4A2717868FFF7D9F9034683F0BF
:105078000103DBB2002BF4D14FF4A6717868FFF777
:10508800BDF94FF488717868FFF7B8F94FF4A27149
:105098007868FFF7B3F939687868FFF78FFF7868A1
:1050A800FFF78FFE3B6800229A603B6800221A6176
:1050B8003868FFF750FE00BF0837BD4680BD80B492
:1050C80089B000AF786039607B681B68FB6100239A
:1050D800FB763B685B6803F01F03002B01D00123BC
:1050E80054E0FB691B681B0ADBB27B613B681B68E9
:1050F8007A699A4201D8012348E0FB695B683B6101
:10510800FB6900225A603B681B68DAB2FB699A6047
:105118003B685B6823F01F03FB603B689B7CDB00FC
:1051280003F01803FA681343FB603B685B7C5B0081
:1051380003F00603FA681343FB603B681B7C03F02B
:105148000103FA681343FB60FB69FA68DA603B689D
:105158009B68013B23F01F03BB603B68DB685B0077
:1051680003F00E03BA681343BB60BB6843F0010346
:10517800BB60FB69BA681A61FB693A695A60BFF398
:105188004F8F00BFBFF36F8F00BFFB7E18462437D9
:10519800BD4680BC704780B487B000AF7860396086
:1051A8007B681B687B610023FB747B695B68FB6021
:1051B8007B6900225A603B68DAB27B699A607B6936
:1051C8000022DA607B6900221A617B69FA685A60FA
:1051D800FB7C18461C37BD4680BC704780B586B03E
:1051E80000AF78607B681B683B613B691B681B0AE2
:1051F800DBB2FB6000237B6106E079697868FFF722
:10520800CAFF7B6901337B617A69FB689A42F4D3F0
:10521800002318461837BD4680BD80B483B000AF60
:1052280078607B681B6800BF0C37BD4680BC704740
:1052380080B483B000AF786039607A683B68134403
:105248001B68002B14BF01230023DBB218460C3760
:10525800BD4680BC704780B582B000AF78600B4611
:105268007B807B887A68134400221A607B887A687E
:1052780013441846FFF7D1FF00BF0837BD4680BD6D
:1052880080B582B000AF78600B467B807B8819467A
:105298007868FFF7CDFF034618460837BD4680BD3E
:1052A80080B483B000AF786039607B683A68C3F82F
:1052B800042300BF0C37BD4680BC704780B485B05E
:1052C80000AF78600B46FB700023FB73FB7B18462E
:1052D8001437BD4680BC704780B483B000AF786097
:1052E8007B689B0318460C37BD4680BC704780B46A
:1052F80083B000AF78607B6801339B03013B18469D
:105308000C37BD4680BC704780B400AF00231846F8
:10531800BD4680BC704780B400AF3F231846BD46E9
:1053280080BC704780B400AF4FF480431846BD4638
:1053380080BC704780B483B000AF78607B6803F5A9
:105348007F43C0335B0318460C37BD4680BC7047AB
:1053580080B483B000AF78607B6803F57F43C133C6
:105368005B03013B18460C37BD4680BC704780B4D0
:1053780000AF40231846BD4680BC704780B400AFDC
:105388007F231846BD4680BC704780B400AF4FF4F9
:1053980000531846BD4680BC704780B582B000AF48
:1053A80000237B6003F062FF78607B68002B02D0EB
:1053B80045F2235300E0002318460837BD4680BD58
:1053C80080B500AF03210120FEF7C0F800BF80BD03
:1053D80080B582B000AF02F0CAFD78607B68002B10
:1053E80001D07B680CE0FFF7D8FF78607B68002B62
:1053F80001D07B6804E0FEF78BF8FFF7E1FF00239C
:1054080018460837BD4680BD80B400AF0023184653
:10541800BD4680BC704780B500AFFEF793F972B601
:1054280000BF20BFFDE780B483B000AF78607B6821
:10543800002B02D14AF2C53303E07B6800221A70C0
:10544800002318460C37BD4680BC704780B400AFB7
:1054580000231846BD4680BC704780B400AF00BF2B
:10546800BD4680BC704780B483B000AF78607B686D
:105478009B0903F00103002B14BF01230023DBB2B7
:1054880018460C37BD4680BC704780B500AFFEF7A4
:105498008DF980B588B000AF786039602623FB614C
:1054A8002323BB6101237B617B685B68082B03D1E5
:1054B8003B685B68042B01D002233CE07B681B68D7
:1054C8003B613B681B68FB60FB684FF0FF321A606A
:1054D8003B691B68002B03D03B695B68002B01D13B
:1054E800022328E03B691B681946FB697422786926
:1054F80002F09CFCB860BB68002B01D002231AE0C4
:105508003B695B681946BB690422786902F08EFC26
:10551800B860BB68002B01D002230CE03B691A6815
:105528003B695B6819461046FEF744F803461A467D
:10553800FB681A60002318462037BD4680BD80B539
:1055480084B000AF78600B46FB703B1D1846FEF731
:1055580077F9F8607A68FB68803253F8223023F0D4
:10556800E043BB60FB7819077A68BB681943FB689E
:10557800803243F8221000BF1037BD4680BD80B48A
:1055880085B000AF78607B685B09BB600023FB6077
:10559800BB68002B03D0BB68012B04D007E04FF099
:1055A800FF33FB6005E04FF6FF73FB6001E000236B
:1055B8000EE07B6803F01F037B60FA687B6822FAC1
:1055C80003F303F00103002B14BF01230023DBB214
:1055D80018461437BD4680BC704780B485B000AF0C
:1055E80078607B681B68FB60FB6803F01F027B68C0
:1055F8001A60FB685B0918461437BD4680BC7047C3
:1056080080B483B000AF78607B68072B8CBF012320
:105618000023DBB2002B0ED18B227B6822FA03F326
:1056280003F00103002B14BF01230023DBB2002B7E
:1056380001D0012300E0002318460C37BD4680BC8A
:10564800704780B582B000AF78607B685B681846A9
:10565800FFF795FF0346002B12D07B689B6818461E
:10566800FFF7CEFF0346002B0AD07B685A687B6899
:105678009B68DBB219461046FFF761FF002301E083
:105688004FF0FF3318460837BD4680BD80B584B05B
:1056980000AF786039607B685B680C2B03D13B688E
:1056A8005B68042B01D0022317E07B681B68FB6052
:1056B8003B681B68BB60BB684FF0FF321A60FB6831
:1056C8001B68002B08D1F868FFF7BBFF0246BB68D0
:1056D8001A6000BF002300E0032318461037BD46B8
:1056E80080BD000080B485B000AF786039600B23BE
:1056F800FB60FB685A1EFA601A463B6813440A228C
:105708001A70FB685A1EFA601A463B6813440D2249
:105718001A700EE07B6803F00F02FB6839680B44CF
:1057280010498A5C1A70FB68013BFB607B681B09A7
:105738007B60FB68012BEDDCFB685A1EFA601A4699
:105748003B68134478221A70FB685A1EFA601A469E
:105758003B68134430221A7000BF1437BD4680BC22
:10576800704700BFE884000080B584B000AF43F6FE
:105778005C23FB604FF0FF33BB60234802F065FAFF
:10578800B860BB68002B02D06FF0FC0337E0FFF76E
:105798001FFEB860BB68002B02D06FF0FC032EE040
:1057A80021211A48FEF741FAFFF72EFEF860FB6840
:1057B800002B02D06FF0FC0321E0FB1D1846FFF719
:1057C80032FEF860FB68002B02D06FF0FC0316E095
:1057D800FB79002B08D0FFF739FEF860FB68002B37
:1057E80002D06FF0FC030AE0FFF737FE02F027FA59
:1057F80035210748FEF719FA01F0A8FD00231846DD
:105808001037BD4680BD00BFF02A0020F884000094
:105818001C85000080B582B000AF4FF0FF337B607D
:105828000A4B184601F015FFFFF79EFF78607B686A
:10583800002B01D001F0D6FE01F00CF800F0E2F9DF
:10584800002318460837BD4680BD00BF000400206D
:1058580080B485B000AF78600023FB60134B5B68B1
:10586800BB601AE0BB681B685B687A689A420FD114
:10587800FB68002B0AD0BB689A68FB689A600B4BE0
:105888005A68BB689A60094ABB685360BB6808E0FD
:10589800BB68FB60FB689B68BB60BB68002BE1D101
:1058A800002318461437BD4680BC7047F42A0020F0
:1058B80080B582B000AF786039607B68002B0DD16D
:1058C80008211A48FEF7B1F91D211948FEF7ADF96C
:1058D8009B220221174801F08BFEFEE77B681B68BC
:1058E8009B6803F48063002B03D0B3F5806F09D065
:1058F80011E07B681B68DB683A689A420ED96FF042
:10590800FA030FE07B681B68DB683A689A4207D0A5
:105918006FF0FA0306E06FF0FA0303E000BF00E05F
:1059280000BF002318460837BD4680BD54850000D7
:10593800608500005C85000080B588B000AFF86025
:10594800B9601346FB710023BB61BB68002B0DD106
:1059580008212548FEF769F91C212448FEF765F956
:10596800B6220221224801F043FEFEE7FB79002B14
:1059780009D0BB681B689B6803F48073002B2DD18A
:105988006FF0FC032BE01B4B1B68BB61BB69002B52
:1059980001D101F027FEBB691B6838337B61002306
:1059A800FB610AE0FB699B007A6913441B68FA688B
:1059B8009A4209D0FB690133FB61BB691B689A698C
:1059C800FB699A42EED800E000BFBB691B689A6980
:1059D800FB699A4202D16FF0FC0300E000231846ED
:1059E8002037BD4680BD00BF54850000808500007B
:1059F8005C850000842B002080B58CB000AFF86077
:105A0800B9607A6000237B6100F0E0F8034687F80C
:105A18002F30FB68002B0DD108213348FEF705F91C
:105A280018213248FEF701F9DB220221304801F043
:105A3800DFFDFEE7BB68002B02D16FF080034FE06B
:105A4800BB6803F08043002B48D0BB6803F01F03FA
:105A5800BB62284ABB6A52F823307B627B6A002B00
:105A680002D16FF080033BE07B6A1B685B683B6296
:105A780097F82F301A46796A386AFFF75DFF0346B0
:105A8800002B02D06FF081032AE0BB681B12DBB247
:105A9800FB61F969786AFFF70BFF0346002B02D018
:105AA8006FF080031CE001F0E3FD03467B6102F028
:105AB800B5F8B8617B69184601F0E7FDBB69002BB2
:105AC80002D16FF082030BE07A68796AB86900F056
:105AD80013F8FB68BA691A60002301E06FF08003CD
:105AE80018463037BD4680BD548500009C850000AF
